S00B00004750532E737265632F
S11300000C94C5000C94E2000C94E2000C94E20001
S11300100C94E2000C94E2000C94E2000C94E200D4
S11300200C94E2000C94E2000C94E2000C94E200C4
S11300300C94E2000C94E2000C94E2000C94E200B4
S11300400C94E2000C94E2000C94E2000C94E200A4
S11300500C94E2004E414E494E495459494E46CD06
S1130060CCCC3D0AD7233C17B7D13877CC2B32956B
S113007095E6241FB14F0A000020410000C8420049
S1130080401C4620BCBE4CCA1B0E5AAEC59D740013
S1130090407A10F35A00A0724E18090010A5D4E853
S11300A00000E87648170000E40B54020000CA9AE6
S11300B03B000000E1F50500008096980000004038
S11300C0420F000000A0860100000010270000007D
S11300D000E803000000006400000000000A0000C3
S11300E00000000100000000002C76D888DC674F77
S11300F00823DFC1DFAE59E1B1B796E5E3E453C6A7
S11301003AE651997696E8E6C28426EB898C9B629E
S1130110ED407C6FFCEFBC9C9F40F2BAA56FA5F448
S113012090055A2AF75C936B6CF9676DC11BFCE070
S1130130E40D47FEF520E6B500D0ED902E030094C3
S11301403577050080841E080000204E0A00000058
S1130150C80C333333330F986E12831141EF8D2162
S113016014893BE65516CFFEE6DB18D1844B381BC9
S1130170F77C1D901DA4BBE424203284725E22818E
S113018000C9F124ECA1E53D270011241FBECFE5F1
S1130190D8E0DEBFCDBF10E0A0E6B0E0EEEEF4E1C3
S11301A002C005900D92A43AB107D9F721E0A4EA60
S11301B0B0E001C01D92AE30B207E1F70E94F10237
S11301C00C94750A0C940000FC018081ACEDB0E045
S11301D08C93818111968C93A1EDB0E082818C93F4
S11301E0838111968C933496A4EDB0E029ED30E030
S11301F081918D93A217B307D9F7089540E855E28A
S113020060E070E080E00E941B0360E081E00E94F7
S1130210F80241E060E088E00E94C603899A0895EC
S1130220EF92FF920F931F93CF937C01C0E087015D
S11302300C0F111D0E94C203F80180838C3211F04F
S1130240CF5FF5CF8DE0F8018083CF911F910F919F
S1130250FF90EF9008951F93CF93DF93EC0110E08C
S113026007C0FE01E80FF91F80810E94BE031F5FD3
S1130270812F90E0FE0101900020E9F73197EC1BFB
S1130280FD0B8E179F0768F3DF91CF911F9108959F
S11302908F929F92AF92BF92CF92DF92EF92FF9292
S11302A00F931F93CF93DF93CDB7DEB72B970FB682
S11302B0F894DEBF0FBECDBF9C011092F0001092E7
S11302C0F1001092F2001092F3001D828D818330B0
S11302D098F49D818D81E1E0F0E0EC0FFD1FE90FC2
S11302E0F11DD901A80FB11D8C9180839D819F5F61
S11302F09D838D81833068F31D828D818630A0F4C7
S11303009D818D81E6E0F0E0EC0FFD1FE90FF11D0A
S1130310D901A80FB11D13968C9180839D819F5F95
S11303209D838D81863060F3CE0106960E94A905D7
S11303304B015C01CE0101960E94A9056B017C0171
S113034020E030E040E752E4C501B4010E94A40477
S1130350A70196010E9438046093F0007093F100A5
S11303608093F2009093F30004EF10E024E046E061
S11303700E948905C8010E942B018DE00E94BE03E2
S11303802B960FB6F894DEBF0FBECDBFDF91CF9191
S11303901F910F91FF90EF90DF90CF90BF90AF909F
S11303A09F908F9008958F929F92AF92BF92CF9219
S11303B0DF92EF92FF920F931F93CF93DF93CDB70A
S11303C0DEB72A970FB6F894DEBF0FBECDBF9C01EF
S11303D01092F0001092F1001092F2001092F300CB
S11303E01C828C81823098F49C818C81E1E0F0E065
S11303F0EC0FFD1FE90FF11DD901A80FB11D8C9160
S113040080839C819F5F9C838C81823068F31C82F3
S11304108C818630A0F49C818C81E5E0F0E0EC0FC7
S1130420FD1FE90FF11DD901A80FB11D12968C9182
S113043080839C819F5F9C838C81863060F3CE0196
S113044005960E94A9054B015C01CE0101960E940C
S1130450A9056B017C0120E030E040E752E4C501CE
S1130460B4010E94A404A70196010E943804609379
S1130470F0007093F1008093F2009093F30004EF86
S113048010E024E046E00E948905C8010E942B0187
S11304908DE00E94BE032A960FB6F894DEBF0FBE0D
S11304A0CDBFDF91CF911F910F91FF90EF90DF901F
S11304B0CF90BF90AF909F908F90089580E690E08A
S11304C00E942B0188E690E00E942B018CED90E0C5
S11304D00E942B018DE690E00E942B0181ED90E0BB
S11304E00E942B0183E790E00E942B0184ED90E0B1
S11304F00E942B018DE00E94BE0388E790E00E94D9
S11305002B0183EB90E00E94D3018DE790E00E94E1
S11305102B018AED90E00E942B0182E890E00E947A
S11305202B0182EC90E00E94480188E890E00E9450
S11305302B018FED90E00E942B018DE890E00E944A
S11305402B0188EA90E00E942B0182E990E00E944E
S11305502B0184EA90E00E942B0189E990E00E943B
S11305602B018BEA90E00E942B0108950E94C203A4
S11305708432B1F583E091E00E941001809105017D
S1130580873471F580910601873451F58091070114
S1130590813431F581EE90E00E94100183EB90E00C
S11305A00E9410018AED90E00E94100182EC90E01C
S11305B00E9410018FED90E00E94100188EA90E003
S11305C00E94100184EA90E00E9410018BEA90E0FE
S11305D00E94100181EE90E00E94E4000E945E02FD
S11305E008950E94FE0010920B010E94B602FDCFF6
S11305F0813019F0823041F017C080B58F7B80BD07
S113060080B58E7F80BD089580B58D7F80BD80B517
S1130610806480BD611104C080B58E7F80BD089563
S113062080B58E7F80BD089580B58F7B80BD80B5F9
S11306308E7F80BD0895549A539A813081F120F0C1
S1130640823009F453C06FC0DB01CA01880F991FBF
S1130650AA1FBB1F880F991FAA1FBB1F9C01AD01B6
S1130660220F331F441F551F220F331F441F551FD2
S113067060E074E284EF90E00E9467058FEF820FE0
S113068089B980B58F7780BDDA01C9010197A109C5
S1130690B109892F9A2FAB2FBB2780BD0895DB01A9
S11306A0CA01880F991FAA1FBB1F880F991FAA1F71
S11306B0BB1F9C01AD01220F331F441F551F60E077
S11306C074E284EF90E00E9467058FEF820F89B98E
S11306D080B58F7780BDDA01C9010197A109B109FD
S11306E0892F9A2FAB2FBB2780BD08959A01AB01A8
S11306F0220F331F441F551F60E074E284EF90E023
S11307000E9467058FEF820F89B980B58F7780BD0E
S1130710DA01C9010197A109B109892F9A2FAB2FD9
S1130720BB2780BD0895DB01CA01880F991FAA1F4A
S1130730BB1F880F991FAA1FBB1F9C01AD01220F6D
S1130740331F441F551F220F331F441F551F60E0E2
S113075074E284EF90E00E9467058FEF820F89B9FD
S113076080B58F7780BDDA01C9010197A109B1096C
S1130770892F9A2FAB2FBB2780BD08955D9BFECF99
S11307808CB908955F9BFECF8CB1089590B59068A5
S113079090BD8730D9F028F4853041F0863071F06F
S11307A02DC08830D9F0893009F128C080B58D7FFB
S11307B080BD80B58B7F80BD529827C080B5826094
S11307C080BD80B58B7F80BD52981FC080B58D7F62
S11307D080BD80B5846080BD529817C080B58260AA
S11307E080BD80B5846080BD52980FC080B58260A2
S11307F080BD80B5846080BD529A07C080B5826098
S113080080BD80B5846080BD529A613059F018F083
S1130810623079F015C080B58F7E80BD80B58F7D44
S113082080BD14C080B58F7E80BD80B5806280BDE0
S11308300DC080B5806180BD80B5806280BD06C07A
S113084080B58F7E80BD80B58F7D80BD413019F02D
S1130850423029F008C080B5877F80BD089580B5F7
S1130860886080BD089580B5877F80BD0895505805
S1130870BB27AA270E944F040C942D050E941F0534
S113088038F00E94260520F039F49F3F19F426F42D
S11308900C941C050EF4E095E7FB0C941605E92F67
S11308A00E943E0558F3BA17620773078407950739
S11308B020F079F4A6F50C9460050EF4E0950B2E67
S11308C0BA2FA02D0B01B90190010C01CA01A0019E
S11308D01124FF27591B99F0593F50F4503E68F1F9
S11308E01A16F040A22F232F342F4427585FF3CF3A
S11308F0469537952795A795F0405395C9F77EF40B
S11309001F16BA0B620B730B840BBAF09150A1F053
S1130910FF0FBB1F661F771F881FC2F70EC0BA0FD9
S1130920621F731F841F48F4879577956795B79561
S1130930F7959E3F08F0B0CF9395880F08F099275C
S1130940EE0F9795879508950E94B8040C942D0591
S11309500E94260558F00E941F0540F029F45F3FCD
S113096029F00C94160551110C9461050C941C0586
S11309700E943E0568F39923B1F3552391F3951B27
S1130980550BBB27AA2762177307840738F09F5FAC
S11309905F4F220F331F441FAA1FA9F335D00E2E19
S11309A03AF0E0E832D091505040E695001CCAF786
S11309B02BD0FE2F29D0660F771F881FBB1F261749
S11309C037074807AB07B0E809F0BB0B802DBF0120
S11309D0FF2793585F4F3AF09E3F510578F00C94EF
S11309E016050C9461055F3FE4F3983ED4F38695B5
S11309F077956795B795F7959F5FC9F7880F911D10
S1130A009695879597F90895E1E0660F771F881FFB
S1130A10BB1F621773078407BA0720F0621B730BAE
S1130A20840BBA0BEE1F88F7E095089597F99F673A
S1130A3080E870E060E008959FEF80EC0895002462
S1130A400A941616170618060906089500240A942F
S1130A5012161306140605060895092E0394000CB5
S1130A6011F4882352F0BB0F40F4BF2B11F460FF44
S1130A7004C06F5F7F4F8F4F9F4F089557FD90586D
S1130A80440F551F59F05F3F71F04795880F97FB4E
S1130A90991F61F09F3F79F0879508951216130608
S1130AA01406551FF2CF4695F1DF08C01616170637
S1130AB01806991FF1CF869571056105089408956C
S1130AC0E894BB2766277727CB0197F90895A1E21D
S1130AD01A2EAA1BBB1BFD010DC0AA1FBB1FEE1FB4
S1130AE0FF1FA217B307E407F50720F0A21BB30BFF
S1130AF0E40BF50B661F771F881F991F1A9469F77B
S1130B0060957095809590959B01AC01BD01CF01D6
S1130B100895EF920F931F93CF93DF93E80147FD5E
S1130B2002C034E001C034E1042E000C550B57FF21
S1130B3003C0519541955109E32E022F242FAE0194
S1130B400E94AD05CE01DF91CF911F910F91EF90DF
S1130B500895662777270C940707A9E0B0E0E3EB34
S1130B60F5E00C94350A6A01122FB02E2BE32017FE
S1130B7020F0FF24F394F00E02C02CE3F22E0F2D8C
S1130B8027E0AE014F5F5F4F0E945508BC014981C9
S1130B90842F8970813031F0E1FC06C0E0FE06C08C
S1130BA090E205C09DE203C09BE201C090E05E2D8F
S1130BB0507143FF3CC0911102C083E001C084E046
S1130BC0811718F4212F281B01C020E051110BC0FC
S1130BD0F601822F30E2882319F031938150FBCF44
S1130BE0C20ED11C20E0992329F0D6019C93F60172
S1130BF031966F01C6010396E2FE0AC03EE4D601B7
S1130C003C9341E411964C93119712963C9306C081
S1130C103EE6F601308341E641833283FC01322F04
S1130C2040E2332309F442C041933150FACF42FFEA
S1130C3044C0911102C083E001C084E0811718F41C
S1130C40212F281B01C020E051110BC0F601822F77
S1130C5030E2882319F031938150FBCFC20ED11CAE
S1130C6020E0992329F0D6019C93F60131966F0177
S1130C70C6010396E2FE0BC039E4D6013C933EE480
S1130C8011963C93119736E412963C9307C039E6CB
S1130C90F60130833EE6318336E63283FC01322F9F
S1130CA040E2332319F041933150FBCFFC01E20FB2
S1130CB0F11D10828EEF9FEFA6C021E030E091116C
S1130CC002C020E030E0161617061CF4FB01319632
S1130CD002C0E1E0F0E02E0F3F1FBB2021F0EB2D1E
S1130CE0F0E0319602C0E0E0F0E02E0F3F1FE12F6C
S1130CF0F0E02E173F071CF4121B212F01C020E047
S1130D008E2D887159F4F601822F30E2882319F070
S1130D1031938150FBCFC20ED11C20E0992329F0DE
S1130D20D6019C93F60131966F0151110BC0F60167
S1130D30822F90E3882319F091938150FBCFC20E48
S1130D40D11C20E00F2D060F9A81342F307144FFFF
S1130D5003C0913309F40150101624F4093018F03B
S1130D6008E001C001E0AB0177FF02C040E050E0C1
S1130D70FB01E41BF50BA1E0B0E0AC0FBD1FEA0FD3
S1130D80FB1F8EE2A82E4B01801A91080B2D10E058
S1130D901195019511094F3FBFEF5B0721F4D6016F
S1130DA0AC9211966D01641775072CF084169506A4
S1130DB014F4818101C080E3415051093196D60178
S1130DC011967D014017510724F0D6018C936701D9
S1130DD0E2CF6417750739F4963320F4953319F488
S1130DE0311101C081E3F6018083F701822F90E283
S1130DF0882319F091938150FBCFF701E20FF11D85
S1130E00108280E090E02996ECE00C94510AA0E076
S1130E10B0E0EDE0F7E00C94350AEC016B016115EC
S1130E20710519F0FB01918380837E01FFEFEF1AB6
S1130E30FF0A0881802F90E00E942D09892B11F070
S1130E40E701F3CF0D3239F47E0182E0E80EF11CA4
S1130E50098111E008C00B3229F47E0192E0E90E09
S1130E60F11C098110E0E701219743E050E06CE5B3
S1130E7070E0CE010E943609892BC1F4239645E027
S1130E8050E067E570E0CE010E943609892B09F431
S1130E902596C114D10419F0F601D183C083111130
S1130EA0F6C060E070E080E89FE7FAC043E050E0FD
S1130EB064E570E0CE010E943609892B59F4C1140F
S1130EC0D10409F4E9C0F2E0EF0EF11CF601F1825D
S1130ED0E082E2C020E030E0A901C0E0D0E0F70108
S1130EE080EDA82EA00E89E08A1530F1912F926032
S1130EF0B92E812F887012FF04C0811124C021965D
S1130F0022C081112197A5E0B0E00E94240ADC01EF
S1130F10CB01880F991FAA1FBB1F9C01AD012A0D8D
S1130F20311D411D511D283989E93807480789E1D8
S1130F30580748F0166006C09EEFA9120AC013FDB8
S1130F4040C01860B12E8FEFE81AF80A00811B2DFB
S1130F50C6CF802F8F7D8534A1F580818D3211F429
S1130F60106106C08B3221F0319661E070E004C05C
S1130F708181329662E070E080538A3018F0E61B7B
S1130F80F70B1FC060E070E060389CE079075CF408
S1130F90DB01AA0FBB1FAA0FBB1F6A0F7B1F660FC3
S1130FA0771F680F711D3196DF0111978C91805363
S1130FB08A3050F314FF03C0719561957109C60F0F
S1130FC0D71F11FF08C0C114D10429F0CF01019724
S1130FD0F60191838083CA01B9010E945309212F2C
S1130FE02370233019F04B015C0106C04B015C01F6
S1130FF0B7FAB094B7F8B09420E030E0A901C50185
S1131000B4010E944E09882309F43EC0D7FF06C0EC
S1131010D195C195D10903E710E002C00BE810E0B7
S11310206801F8E1CF1AD10890E2E92EF12CCE152F
S1131030DF0574F0F8012591359145915491C5016E
S1131040B4010E94B4094B015C01CE19DF09EFCF52
S113105004501109F594E7940C151D0541F78A2DE8
S1131060880F8B2D881F8F3F49F020E030E0A901C5
S1131070C501B4010E944E09811106C082E290E0CC
S113108090930D0180930C01C501B40109C060E087
S113109070E080E89FEF04C060E070E080EC9FE7C0
S11310A0CDB7DEB7ECE00C94510A283008F027E005
S11310B03327DA01990F311D87FD91600096610590
S11310C0710539F432602E5F3D9330E32A95E1F7E0
S11310D008959F3F30F080387105610509F03C5F49
S11310E03C5F3D93913008F08068911DDF93CF936E
S11310F01F930F93FF92EF92192F987F9695E92FE4
S113110096959695E90FFF27E751FF4F99273327C7
S1131110EE24FF24A701E70105900894079428F41E
S1131120360FE71EF81E491F511D660F771F881FD3
S1131130991F0694A1F70590079428F4E70EF81E6A
S1131140491F561FC11D770F881F991F661F0694DC
S1131150A1F70590079428F4F80E491F561FC71FDE
S1131160D11D880F991F661F771F0694A1F705905C
S1131170079420F4490F561FC71FD81F990F661FE5
S1131180771F881F0694A9F784911095177041F072
S1131190D695C79557954795F794E7941A95C1F74F
S11311A0EFE8F0E06894159015913591659195916B
S11311B005907FE27395E118F10A430B560BC90BB6
S11311C0D009C0F7E10CF11E431F561FC91FD01DE3
S11311D07EF4703311F48A95E6CFE894015030F030
S11311E0080F0AF40027021708F4202F2395022F72
S11311F07A3328F079E37D932A95E9F710C07D933B
S11312002A9589F6069497956795379517951794B7
S1131210E118F10A430B560BC90BD00998F023953A
S11312207E9173957A3308F070E37C932013B8F7BA
S11312307E9170617D9330F0839571E37D9370E3CB
S11312402A95E1F71124EF90FF900F911F91CF9110
S1131250DF91992787FD9095089591110C94210AA7
S1131260803219F089508550C8F70895FB01DC01DC
S11312704150504088F08D9181341CF08B350CF432
S1131280805E659161341CF06B350CF4605E861BE6
S1131290611171F3990B0895881BFCCF0E9490098A
S11312A008F481E00895E89409C097FB3EF4909512
S11312B08095709561957F4F8F4F9F4F9923A9F02B
S11312C0F92F96E9BB279395F695879577956795BA
S11312D0B795F111F8CFFAF4BB0F11F460FF1BC0FE
S11312E06F5F7F4F8F4F9F4F16C0882311F096E991
S11312F011C0772321F09EE8872F762F05C066233F
S113130071F096E8862F70E060E02AF09A95660FF7
S1131310771F881FDAF7880F9695879597F90895B0
S1131320990F0008550FAA0BE0E8FEEF16161706F2
S1131330E807F907C0F012161306E407F50798F05A
S1131340621B730B840B950B39F40A2661F0232B73
S1131350242B252B21F408950A2609F4A140A695EF
S11313608FEF811D811D08950E94C7090C942D05DE
S11313700E941F0538F00E94260520F0952311F0E5
S11313800C9416050C941C0511240C9461050E9400
S11313903E0570F3959FC1F3950F50E0551F629F72
S11313A0F001729FBB27F00DB11D639FAA27F00DBA
S11313B0B11DAA1F649F6627B00DA11D661F829FE1
S11313C02227B00DA11D621F739FB00DA11D621FC6
S11313D0839FA00D611D221F749F3327A00D611DE3
S11313E0231F849F600D211D822F762F6A2F1124C5
S11313F09F5750409AF0F1F088234AF0EE0FFF1FF8
S1131400BB1F661F771F881F91505040A9F79E3F4E
S1131410510580F00C9416050C9461055F3FE4F3CC
S1131420983ED4F3869577956795B795F795E795A4
S11314309F5FC1F7FE2B880F911D9695879597F9AD
S113144008959927882708950E94660AA59F900DFC
S1131450B49F900DA49F800D911D112408952F9287
S11314603F924F925F926F927F928F929F92AF9230
S1131470BF92CF92DF92EF92FF920F931F93CF937D
S1131480DF93CDB7DEB7CA1BDB0B0FB6F894DEBF14
S11314900FBECDBF09942A88398848885F846E843A
S11314A07D848C849B84AA84B984C884DF80EE8084
S11314B0FD800C811B81AA81B981CE0FD11D0FB68D
S11314C0F894DEBF0FBECDBFED010895A29FB00119
S11314D0B39FC001A39F700D811D1124911DB29F64
S11114E0700D811D1124911D0895F894FFCF05
S11314EE74696D655B5D0D004852533A006D696E0B
S11314FE733A007365633A004C61743A004E2F538D
S113150E3A006C6F6E673A00452F573A00534154B8
S113151E3A004669785F503A00416C746974756498
S107152E653A000016
S9030000FC
